{
  "contractName": "Example",
  "abi": [
    {
      "anonymous": false,
      "inputs": [
        {
          "indexed": true,
          "internalType": "address",
          "name": "investor",
          "type": "address"
        },
        {
          "indexed": false,
          "internalType": "uint256",
          "name": "amount",
          "type": "uint256"
        }
      ],
      "name": "Invest",
      "type": "event"
    },
    {
      "inputs": [
        {
          "internalType": "address",
          "name": "",
          "type": "address"
        }
      ],
      "name": "ownership",
      "outputs": [
        {
          "internalType": "uint256",
          "name": "",
          "type": "uint256"
        }
      ],
      "stateMutability": "view",
      "type": "function",
      "constant": true
    },
    {
      "inputs": [],
      "name": "invest",
      "outputs": [],
      "stateMutability": "payable",
      "type": "function",
      "payable": true
    },
    {
      "inputs": [
        {
          "internalType": "address",
          "name": "user",
          "type": "address"
        }
      ],
      "name": "getOwnership",
      "outputs": [
        {
          "internalType": "uint256",
          "name": "",
          "type": "uint256"
        }
      ],
      "stateMutability": "view",
      "type": "function",
      "constant": true
    }
  ],
  "bytecode": "0x608060405234801561001057600080fd5b50610401806100206000396000f3fe6080604052600436106100345760003560e01c806327d6d6e0146100395780632b681a5414610076578063e8b5e51f146100b3575b600080fd5b34801561004557600080fd5b50610060600480360381019061005b9190610268565b6100bd565b60405161006d91906102ae565b60405180910390f35b34801561008257600080fd5b5061009d60048036038101906100989190610268565b6100d5565b6040516100aa91906102ae565b60405180910390f35b6100bb61011d565b005b60006020528060005260406000206000915090505481565b60008060008373ffffffffffffffffffffffffffffffffffffffff1673ffffffffffffffffffffffffffffffffffffffff168152602001908152602001600020549050919050565b60003411610160576040517f08c379a000000000000000000000000000000000000000000000000000000000815260040161015790610326565b60405180910390fd5b346000803373ffffffffffffffffffffffffffffffffffffffff1673ffffffffffffffffffffffffffffffffffffffff16815260200190815260200160002060008282546101ae9190610375565b925050819055503373ffffffffffffffffffffffffffffffffffffffff167fd90d253a9de34d2fdd5a75ae49ea17fcb43af32fc8ea08cc6d2341991dd3872e346040516101fb91906102ae565b60405180910390a2565b600080fd5b600073ffffffffffffffffffffffffffffffffffffffff82169050919050565b60006102358261020a565b9050919050565b6102458161022a565b811461025057600080fd5b50565b6000813590506102628161023c565b92915050565b60006020828403121561027e5761027d610205565b5b600061028c84828501610253565b91505092915050565b6000819050919050565b6102a881610295565b82525050565b60006020820190506102c3600083018461029f565b92915050565b600082825260208201905092915050565b7f4d7573742073656e642045544800000000000000000000000000000000000000600082015250565b6000610310600d836102c9565b915061031b826102da565b602082019050919050565b6000602082019050818103600083015261033f81610303565b9050919050565b7f4e487b7100000000000000000000000000000000000000000000000000000000600052601160045260246000fd5b600061038082610295565b915061038b83610295565b9250827fffffffffffffffffffffffffffffffffffffffffffffffffffffffffffffffff038211156103c0576103bf610346565b5b82820190509291505056fea2646970667358221220a62773ea9cb0d5b9972856a963f761b40f1cde0713f4455c01519aa74ec1aecd64736f6c634300080d0033",
  "immutableReferences": {},
  "source": "// SPDX-License-Identifier: MIT\npragma solidity ^0.8.0;\n\ncontract Example {\n    event Invest(address indexed investor, uint256 amount);\n\n    mapping(address => uint256) public ownership;\n\n    function invest() public payable {\n        require(msg.value > 0, \"Must send ETH\");\n        ownership[msg.sender] += msg.value;\n        emit Invest(msg.sender, msg.value);\n    }\n\n    function getOwnership(address user) public view returns (uint256) {\n        return ownership[user];\n    }\n}",
  "sourcePath": "/Users/rakko/UserDocuments/Projects/realestate-investment-dapp/blockchain/contracts/Example.sol",
  "compiler": {
    "name": "solc",
    "version": "0.8.13+commit.abaa5c0e.Emscripten.clang"
  },
  "schemaVersion": "3.4.16",
  "updatedAt": "2025-04-14T03:46:45.364Z",
  "networkType": "ethereum",
  "devdoc": {
    "kind": "dev",
    "methods": {},
    "version": 1
  },
  "userdoc": {
    "kind": "user",
    "methods": {},
    "version": 1
  }
}