{
  "contractName": "Example",
  "abi": [
    {
      "anonymous": false,
      "inputs": [
        {
          "indexed": true,
          "internalType": "address",
          "name": "investor",
          "type": "address"
        },
        {
          "indexed": false,
          "internalType": "uint256",
          "name": "amount",
          "type": "uint256"
        }
      ],
      "name": "Invest",
      "type": "event"
    },
    {
      "inputs": [
        {
          "internalType": "address",
          "name": "",
          "type": "address"
        }
      ],
      "name": "ownership",
      "outputs": [
        {
          "internalType": "uint256",
          "name": "",
          "type": "uint256"
        }
      ],
      "stateMutability": "view",
      "type": "function"
    },
    {
      "inputs": [],
      "name": "invest",
      "outputs": [],
      "stateMutability": "payable",
      "type": "function"
    },
    {
      "inputs": [
        {
          "internalType": "address",
          "name": "user",
          "type": "address"
        }
      ],
      "name": "getOwnership",
      "outputs": [
        {
          "internalType": "uint256",
          "name": "",
          "type": "uint256"
        }
      ],
      "stateMutability": "view",
      "type": "function"
    }
  ],
  "bytecode": "0x608060405234801561000f575f80fd5b506103be8061001d5f395ff3fe608060405260043610610033575f3560e01c806327d6d6e0146100375780632b681a5414610073578063e8b5e51f146100af575b5f80fd5b348015610042575f80fd5b5061005d60048036038101906100589190610254565b6100b9565b60405161006a9190610297565b60405180910390f35b34801561007e575f80fd5b5061009960048036038101906100949190610254565b6100cd565b6040516100a69190610297565b60405180910390f35b6100b7610112565b005b5f602052805f5260405f205f915090505481565b5f805f8373ffffffffffffffffffffffffffffffffffffffff1673ffffffffffffffffffffffffffffffffffffffff1681526020019081526020015f20549050919050565b5f3411610154576040517f08c379a000000000000000000000000000000000000000000000000000000000815260040161014b9061030a565b60405180910390fd5b345f803373ffffffffffffffffffffffffffffffffffffffff1673ffffffffffffffffffffffffffffffffffffffff1681526020019081526020015f205f82825461019f9190610355565b925050819055503373ffffffffffffffffffffffffffffffffffffffff167fd90d253a9de34d2fdd5a75ae49ea17fcb43af32fc8ea08cc6d2341991dd3872e346040516101ec9190610297565b60405180910390a2565b5f80fd5b5f73ffffffffffffffffffffffffffffffffffffffff82169050919050565b5f610223826101fa565b9050919050565b61023381610219565b811461023d575f80fd5b50565b5f8135905061024e8161022a565b92915050565b5f60208284031215610269576102686101f6565b5b5f61027684828501610240565b91505092915050565b5f819050919050565b6102918161027f565b82525050565b5f6020820190506102aa5f830184610288565b92915050565b5f82825260208201905092915050565b7f4d7573742073656e6420455448000000000000000000000000000000000000005f82015250565b5f6102f4600d836102b0565b91506102ff826102c0565b602082019050919050565b5f6020820190508181035f830152610321816102e8565b9050919050565b7f4e487b71000000000000000000000000000000000000000000000000000000005f52601160045260245ffd5b5f61035f8261027f565b915061036a8361027f565b925082820190508082111561038257610381610328565b5b9291505056fea264697066735822122022c79099adf01704a08c0c9c42ac950173820a7c951c3ede81ea00dbe0517ffe64736f6c63430008150033",
  "immutableReferences": {},
  "source": "// SPDX-License-Identifier: MIT\npragma solidity ^0.8.20;\n\ncontract Example {\n    event Invest(address indexed investor, uint256 amount);\n\n    mapping(address => uint256) public ownership;\n\n    function invest() public payable {\n        require(msg.value > 0, \"Must send ETH\");\n        ownership[msg.sender] += msg.value;\n        emit Invest(msg.sender, msg.value);\n    }\n\n    function getOwnership(address user) public view returns (uint256) {\n        return ownership[user];\n    }\n}",
  "sourcePath": "/Users/rakko/UserDocuments/Projects/realestate-investment-dapp/blockchain/contracts/Example.sol",
  "compiler": {
    "name": "solc",
    "version": "0.8.21+commit.d9974bed.Emscripten.clang"
  },
  "schemaVersion": "3.4.16",
  "updatedAt": "2025-04-13T13:48:06.552Z",
  "devdoc": {
    "kind": "dev",
    "methods": {},
    "version": 1
  },
  "userdoc": {
    "kind": "user",
    "methods": {},
    "version": 1
  }
}